:100000000C9472000C9493000C9493000C94930045
:100010000C9493000C9493000C9493000C94930014
:100020000C9493000C9493000C9493000C94930004
:100030000C9493000C9493000C9493000C949300F4
:100040000C9493000C9493000C9493000C949300E4
:100050000C9493000C9493000C9493000C949300D4
:100060000C9493000C94A1020C9493000C949300B4
:100070000C9493000C9493000C9493000C949300B4
:100080000C9493000C9493000C9493000C949300A4
:100090000C9493000C9493000C9493000C94930094
:1000A0000C9493000C9493000C9493000C94930084
:1000B0000C9493000C9493000C9493000C94930074
:1000C0000C9493000C9493000C9493000C94930064
:1000D0000C9493000C9493000C9493000C94930054
:1000E0000C94930011241FBECFEFD1E2DEBFCDBF31
:1000F00000E00CBF12E0A0E0B2E0ECE2F7E000E0CC
:100100000BBF02C007900D92A230B107D9F712E0E1
:10011000A2E0B2E001C01D92A431B107E1F70E9454
:10012000F3020C9494030C94000086E69EE0019781
:10013000F1F700004098419880E388B9429AEFEFC8
:10014000F7E43197F1F700C000004298E6E6FEE0E0
:100150003197F1F700004098419888B9429AEFEF43
:10016000F7E43197F1F700C000004298E6E6FEE0C0
:100170003197F1F700004098419888B9429A8FEF83
:1001800097E40197F1F700C000004298E6E6FEE030
:100190003197F1F700004098419880E288B9429A7F
:1001A0008FEF97E40197F1F700C00000429808959F
:1001B00098B19F7098B998B1282F207F922B98B949
:1001C00040984198429AEFEFF7E43197F1F700C079
:1001D0000000429898B19F7098B998B18295807F3D
:1001E000892B88B940984198429A8FEF97E40197FC
:1001F000F1F700C00000429808950E94950086E63D
:100200009EE00197F1F7000088E20E94D80081E0AB
:100210000E94D80086E00E94D8008EE00E94D8009C
:1002200080E80E94D800089598B19F7098B998B15D
:10023000282F207F922B98B9409A4198429AEFEF4D
:10024000F7E43197F1F700C00000429898B19F7031
:1002500098B998B18295807F892B88B9409A419846
:10026000429A8FEF97E40197F1F700C0000042989F
:10027000089580E80E94D8000895CF93DF93EC01A1
:100280008881882331F021960E9414018991882366
:10029000D9F7DF91CF910895823079F0833018F447
:1002A0008130C9F405C0833069F08430A1F40FC0F7
:1002B000862F81580E94D8000895862F81540E946D
:1002C000D8000895862F8D560E94D8000895862F55
:1002D0008D520E94D80008950F931F93CF93DF9300
:1002E0008A01E901882311F0662319F40E9439017B
:1002F00002C00E944C01C530D10571F4C80160E113
:1003000077E20E948003CB01C0969093070280930E
:1003100006020E94140103C0C430D105B9F4C8011B
:1003200068EE73E00E948003CB0170930902609332
:1003300008026AE070E00E948003C0969093130266
:10034000809312020E94140181E001C080E0C3305A
:10035000D10511F08130B1F4C80164E670E00E946B
:100360008003CB0170930902609308026AE070E099
:100370000E948003C09690930F0280930E020E9409
:10038000140181E0C230D10511F08130B1F42AE0CE
:1003900030E0C801B9010E948003CB0170930902CB
:1003A00060930802B9010E948003C09690930C02EA
:1003B00080930B020E94140181E0C130D10511F03D
:1003C000813061F4C8016AE070E00E948003C09649
:1003D00090931102809310020E941401C630D1053F
:1003E0001CF085E40E941401DF91CF911F910F91C1
:1003F000089586B1886088B9089586B1877F88B9E5
:10040000089587B1876F87B988B1807888B90895D2
:1004100010BA11BA1092070110920801089581B123
:100420008F6081B982B1807F82B9EAE0F1E080819A
:1004300088618083EBE0F1E08081886180830895AA
:100440000E9401020E9408020E940F020895E1E248
:10045000F1E010828FEF8093250191E090932401C9
:10046000109229018093280110922B0180932A0178
:1004700010922D0180932C0189EA809320018BE05A
:1004800080830895EAE7F0E0108210927B0080E21A
:1004900080937C0080E880BF86E880830895883060
:1004A00018F098E090937B008770806280937C00C6
:1004B000EAE7F0E0808180648083808184FFFDCF63
:1004C00080917900EAE7F0E090819061908310924A
:1004D0007B000895CF93DF93D82FC62F842F0E94DF
:1004E0004F02482F80930A028D2F6C2F50E023E09B
:1004F00030E00E946C01DF91CF9108958093280134
:1005000060932A01089592B1907F8F70982B92B9D1
:10051000089586E00E948302089580E00E9483028D
:100520000895E1ECF0E010821092C00086E0809324
:10053000C2008FE58093C4001092C50088E98083D3
:1005400008951F920F920FB60F920BB60F921124BF
:100550002F933F934F935F936F937F938F939F93CB
:10056000AF93BF93EF93FF938091C60080930D02EA
:10057000883351F480910002813019F41092000206
:1005800003C081E08093000280910D02873369F4FB
:100590000E94F9018FEF9FEFACE281509040A040A4
:1005A000E1F700C000000E94FD01FF91EF91BF91B3
:1005B000AF919F918F917F916F915F914F913F91FB
:1005C0002F910F900BBE0F900FBE0F901F9018959C
:1005D000F8940E9420020E9442020E9427020E9478
:1005E0009102789408950E94E8020E9495000E946A
:1005F000FD00C6ECD0E016E304E302C082B112B8FD
:10060000809100028130D1F383E00E944F028093F9
:10061000040282E00E944F028093030281E00E9464
:100620004F02809302021092050281E061E043E0F4
:100630000E946A0281E065E042E00E946A0281E075
:1006400069E041E00E946A0280910302813190F0EA
:1006500080910402813170F080910202813150F06A
:1006600081E0809305020E94890280E060E00E94A0
:100670007E02088380910302803150F481E08093F0
:1006800005020E94890289E664E60E947E021883C0
:1006900080910402813170F080910502882351F429
:1006A00081E0809305020E94890289E666E40E9447
:1006B0007E02188380910202813170F080910502E0
:1006C000882351F481E0809305020E9489028BE423
:1006D00064E60E947E0218838FEF9FE3ABE08150B7
:1006E0009040A040E1F700C0000012B88FEF9FE7F4
:1006F000A6E181509040A040E1F700C0000080CF0B
:10070000AA1BBB1B51E107C0AA1FBB1FA617B70737
:1007100010F0A61BB70B881F991F5A95A9F7809553
:0C0720009095BC01CD010895F894FFCF26
:02072C000100CA
:00000001FF
